:020000040800F2
:100000000000022065340008B5340008B53400084B
:10001000B5340008B5340008B5340008000000000D
:10002000000000000000000000000000B5340008DF
:10003000B534000800000000B5340008B5340008ED
:10004000B5340008B5340008B5340008B5340008EC
:1000500000000000B5340008B5340008B5340008CD
:10006000B5340008B5340008B5340008B5340008CC
:10007000B5340008B5340008B5340008B5340008BC
:10008000B5340008B5340008B5340008B5340008AC
:10009000B5340008B5340008B5340008B53400089C
:1000A000B53400083511000855110008B5340008B2
:1000B00095110008C5110008F1110008B5340008B9
:1000C000B5340008B5340008B5340008B53400086C
:1000D000B5340008352F0008AD3000086531000840
:1000E000B5340008B5340008B5340008B53400084C
:1000F00075110008B5340008B5340008B53400089F
:10010000B5340008B53400081D120008B5340008E5
:10011000F12F0008B5340008B5340008B5340008E4
:10012000B5340008B5340008B5340008B53400080B
:10013000B5340008B5340008B5340008B5340008FB
:10014000B5340008B5340008B5340008B5340008EB
:10015000B5340008B5340008B53400081932000879
:10016000B5340008B5340008B5340008B5340008CB
:10017000B5340008B5340008B5340008B5340008BB
:10018000B5340008B534000800000000000000008D
:10019000000000000000000000000000000000005F
:0801A000B5340008B534000875
:1001A80010B5054C237833B9044B13B10448AFF3A9
:1001B80000800123237010BD000000200000000013
:1001C8000035000808B5034B1BB103490348AFF3DA
:1001D800008008BD00000000040000200035000871
:1001E80080B400AF064BD3F88830054A43F4700357
:1001F800C2F8883000BFBD465DF8047B704700BF79
:1002080000ED00E080B483B000AF78600846114686
:100218001A460346FB700B46BB7013467B707B681F
:100228001A68FB785B00022101FA03F31A437B6822
:100238001A607B685B68BA7802F00101FA7801FA03
:1002480002F21A437B685A607B689B687978FA786F
:10025800520001FA02F21A437B689A60FB78072B76
:100268000BD97B685B6A397CFA78083A920001FA04
:1002780002F21A437B685A6209E07B681B6A397C80
:10028800FA78920001FA02F21A437B681A6200BFF8
:100298000C37BD465DF8047B7047000080B483B01E
:1002A80000AF78607B68284A934206D1274B1B68C9
:1002B800264A43F00103136040E07B68244A9342D6
:1002C80006D1224B1B68214A43F00203136035E034
:1002D8007B68204A934206D11C4B1B681B4A43F09B
:1002E800040313602AE07B681B4A934206D1174B2C
:1002F8001B68164A43F0080313601FE07B68174A1F
:10030800934206D1114B1B68104A43F01003136047
:1003180014E07B68124A934206D10C4B1B680B4AC7
:1003280043F04003136009E07B680E4A934205D10D
:10033800064B1B68054A43F08003136000BF0C3767
:10034800BD465DF8047B704700000240303802402B
:100358000004024000080240000C02400010024065
:1003680000140240001C024080B483B000AF174B59
:100378001B68164A43F00803136000237B6002E001
:100388007B6801337B607B68B3F57A7FF8DB104BC1
:100398001B680F4A43F0804313600D4B1B680C4ADF
:1003A80043F0807313600A4B1B68094A43F080636B
:1003B8001360074B1B68064A43F08053136000BF65
:1003C8000C37BD465DF8047B704700BF30380240EB
:1003D800000C024080B400AF0E4B1B680D4A83F43A
:1003E800805313600B4B1B680A4A83F40053136055
:1003F800084B1B68074A83F480431360054B1B684E
:10040800044A83F40043136000BFBD465DF8047BD3
:10041800704700BF140C024080B487B000AF034699
:100428000A46FB711346BB71FB795B09FB75FB79C7
:100438009B08BB75FB7D9B001A46334B13443B61FD
:10044800FB7D9B0003F1604303F56143FB60BB7DCB
:100458009B0003F1604303F56443BB6005E0FB794F
:10046800203BFB71FB7D013BFB75FB7D002BF6D12F
:100478000423FB752AE0FA79FB7DD31A5A1C13462C
:100488009B0013445B00002B00DA03339B10BB7501
:10049800FA79FB7DD31A0133002B00DA03339B1062
:1004A8005B42DBB21A46920013445B00DAB2BB7DB2
:1004B8001344BB75BB7D002B03D0FB7D013BFB7553
:1004C80004E0FB7D013BBB750023FB75FB7D002B26
:1004D800D1D1FB681B68FA79012101FA02F21A43AB
:1004E800FB681A60BB681B68B979BA7DD20001FA4B
:1004F80002F212011A43BB681A6000BF1C37BD46DE
:100508005DF8047B704700BF80E100E080B588B0EB
:1005180004AF7860084611461A460346FB700B463E
:10052800BB7013467B707B681B78FB732F4B1B6873
:100538002E4A43F0805313602D4B1B682C4A23F43A
:10054800404313602A4B1B68294A43F480431360D5
:10055800FB7B102B0BD1274B00221A603B7F3A7E86
:100568007978786800F062F800F0D4F938E0FB7B1D
:10057800082B0BD11F4B01221A603B7F3A7E7978FA
:10058800786800F053F800F0DFF929E0FB7B172BBF
:1005980024D9FB7BB42B21D8BB78002B0DD17A78DA
:1005A800F978082302933B7F01933B7E009313461F
:1005B8001022786800F004FA12E00F48FFF76EFE88
:1005C8007A78F978012302933B7F01933B7E00936D
:1005D80013460822786800F0F3F901E000F0F0FB18
:1005E800012318461037BD4680BD00BF4038024081
:1005F8000070004008380240001C024080B485B0FA
:1006080000AF0346FB710123FB7305E0FB7B5B0036
:10061800FB73FB79013BFB71FB79002BF6D1FB7B6C
:1006280018461437BD465DF8047B7047B0B586B0F0
:1006380000AF7860084611461A460346FB700B4621
:10064800BB7013467B707B681B78FB75FB7818467C
:10065800FFF7D4FF03461A46FB7DB3FBF2F3BB75E5
:1006680000237B7500233B750023FB73FB7D03F0A0
:100678000103002B12D0FB7D0133FB757B681B78CF
:100688000133DAB27B681A70FB781846FFF7B6FFB9
:1006980003461A46FB7DB3FBF2F3BB75FB78042BCC
:1006A80002D9BB7D5B08BB75BB7D012B0FD9FB78DD
:1006B800002B08D0954B1B68FA78073212011146B7
:1006C800924A0B4313607B68BA7D5A7008E08F4BDF
:1006D8008E4A1B6813607B68FA7D5A700023FB7092
:1006E800FA78BB781344DBB21846FFF787FF034656
:1006F8001A46FB7DB3FBF2F37B75FA787B781344DB
:10070800DBB21846FFF77AFF03461A46FB7DB3FBB8
:10071800F2F33B75FB78042B05D97B7D5B087B7571
:100728003B7D5B083B757B7D012B26D97B7D2D2B83
:1007380023D8BB78002B08D0744B1B68BA780332D7
:1007480092021146714A0B4313607B7D642202FBBF
:1007580003F4FB7D642202FB03F5FA78BB781344AB
:10076800DBB21846FFF74AFF034695FBF3F3E31A9B
:100778003B617B687A7D9A703EE00023FB7312E050
:10078800FA7BFB781344DBB21846FFF737FF0346C2
:100798001A46FB7DB3FBF2F37B75FB78042B02D979
:1007A8007B7D5B087B757B7D2D2BE9D9FB7B042B3F
:1007B800E6D8FB7B002B08D0544B1B68FA7B03322E
:1007C80092021146514A0B4313607B7D642202FB5F
:1007D80003F4FB7D642202FB03F5FA78FB7B1344E8
:1007E800DBB21846FFF70AFF034695FBF3F3E31A5B
:1007F8003B617B687A7D9A703B7D012B26D93B7DD6
:100808002D2B23D87B78002B08D0404B1B687A7897
:100818000332520311463D4A0B4313603B7D642269
:1008280002FB03F4FB7D642202FB03F5FA787B7874
:100838001344DBB21846FFF7E1FE034695FBF3F3DA
:10084800E31A3B617B683A7DDA703EE00023FB7374
:1008580012E0FA7BFB781344DBB21846FFF7CEFEB2
:1008680003461A46FB7DB3FBF2F33B75FB78042B7A
:1008780002D93B7D5B083B753B7D2D2BE9D9FB7B82
:10088800042BE6D8FB7B002B08D0204B1B68FA7B97
:100898000332520311461D4A0B4313603B7D642209
:1008A80002FB03F4FB7D642202FB03F5FA78FB7B71
:1008B8001344DBB21846FFF7A1FE034695FBF3F39A
:1008C800E31A3B617B683A7DDA703B69002B03D001
:1008D8007B6800221A7102E07B6801221A71BB7DD5
:1008E800312B09D90A4B1B68094A43F4804313602A
:1008F80000F084FA00F092FA7B685B78184602F000
:10090800C7FA00BF1837BD46B0BD00BF083802405F
:100918004438024080B400AF0A4B4FF4D1421A6009
:10092800084B1B68074A43F00103136000BF054BDF
:100938001B68002BFBD000BF00BFBD465DF8047BE1
:10094800704700BF0038024080B400AF074B4FF437
:1009580080321A6000BF054B1B68002BFBD000BF1C
:1009680000BFBD465DF8047B704700BF00380240F9
:1009780080B483B000AF0346FB71FB79012B03D130
:100988000D4B0E4A1A600BE00B4B4FF4D1421A6024
:10099800094B1B68084A43F0807343F00103136056
:1009A80000BF054B1B68002BFBD000BF00BF0C37F6
:1009B800BD465DF8047B7047003802400000010125
:1009C80080B58AB004AF7860084611461A460346D7
:1009D800FB700B46BB7013467B7000237B617B6802
:1009E8001B789BB21A46920013441A4691001A4685
:1009F8000B4613449B00FB810023FB740223BB744A
:100A080032233B8297F82830082B12D00223FB743C
:100A1800BB78642203FB02F2FB7C92FBF3F37B615D
:100A2800FA7CB9780123786900F012F90346FB745F
:100A380093E00823FB74BB78642203FB02F2FB7C7F
:100A480092FBF3F37B6188E032233B82BB7864221C
:100A580003FB02F2FB7C92FBF3F33A8A02FB03F3FB
:100A68007B613B8AFA7CB978786900F017F903460C
:100A78003B825CE07A69724BA3FB0213D21A5208DC
:100A880013449A08FB899A4204D37B69DA08FB89E4
:100A98009A4249D20223BB74BB7C7A69B2FBF3F356
:100AA8007B61FB78022B0FD1F87CFA89B978022395
:100AB8000293BB7C01933B8A00930346786900F05C
:100AC80017F90346BB740EE0F87CFA89B97801235C
:100AD8000293BB7C01933B8A00930346786900F03C
:100AE80007F90346BB74BB7C082B0ED93B8A01333C
:100AF8003B82BB78642203FB02F2FB7C92FBF3F39C
:100B08003A8A02FB03F37B6111E0BB78642203FBA2
:100B180002F2FB7C92FBF3F33A8A03FB02F2BB7C02
:100B280092FBF3F37B6102E040F2B1133B823B8A14
:100B3800B3F5D87F08D8FB897A699A4204D07B69D3
:100B48004AF6C002934295D9FB897A699A4204D041
:100B5800FA7C97F828301344FB74FA7CBB789A42E5
:100B680004D8FB897A699A427FF46EAFFB897A6967
:100B78009A4210D0BB7C082B0DD9FA7CBB789A42DC
:100B880009D93B8AB3F5D87F05D900F019F97B68F4
:100B980050221A7050E07B692A4AA2FB03235B09A2
:100BA800DAB27B681A70FB78022B1BD1BB7C5B081E
:100BB800DBB2013BBB74244B02221A6097F8243045
:100BC80097F8202079787868FFF730FDFA7C3B8A1F
:100BD8009B011A43BB7C1B0413431C4A43F0085374
:100BE800136015E0184B03221A6097F8243097F821
:100BF800202079787868FFF719FDFA7C3B8A9B01F9
:100C08001A43BB7C1B071343104A43F00853136075
:100C1800BB78082B09D10D4B1B680C4A43F48003A1
:100C280013600120FFF7A4FE06E0084B074A1B6883
:100C380013600020FFF79CFE00BF1837BD4680BD3B
:100C4800254992241F85EB51083802400438024098
:100C580080B485B000AF7860084611461A4603464E
:100C6800FB700B46BB7013467B70BB78FB730BE0C5
:100C7800FA7B7B781344FB73FB78642203FB02F254
:100C8800FB7B92FBF3F37B607B68C82BF0D8FB7B84
:100C980018461437BD465DF8047B704780B485B0AC
:100CA80000AF7860084611461A460346FB700B46AB
:100CB800BB7013463B803B88FB810DE0FB89013309
:100CC800FB81FB78642203FB02F2BB7892FBF3F30F
:100CD8003A8802FB03F37B607B6842F20F7293420F
:100CE800ECD9FB8918461437BD465DF8047B70477C
:100CF80080B485B000AF7860084611461A460346AE
:100D0800FB700B463B801346BB703B7FFB7312E0C6
:100D1800FA7B97F820301344FB73FB78642203FBBB
:100D280002F2BB7892FBF3F33A8B03FB02F2FB7BF4
:100D380092FBF3F37B607B6844F250629342E7D8FE
:100D48007B68B3F5166F32D329E0FA7B97F8203029
:100D58001344FB73FB78642203FB02F2BB7892FB1B
:100D6800F3F33A8B03FB02F2FB7B92FBF3F37B601A
:100D78003B887A689A4212D0FB7B082B0CBF012370
:100D88000023DAB2FB7B072B0CBF01230023DBB265
:100D98001343DBB2002B02D0FB7B0233FB73FB7BDC
:100DA800082B06D83B887A689A42CED101E00923FD
:100DB800FB73FB7B18461437BD465DF8047B704710
:100DC80080B500AF0A4B49F202021A60094B0A4A81
:100DD8001A60084B1B68074A43F4800313605020CD
:100DE80002F056F80120FFF7C3FD00BF80BD00BF29
:100DF80008380240043802400214012280B400AFCF
:100E0800054B1B68044A43F00103136000BFBD464D
:100E18005DF8047B704700BF2038014080B400AF04
:100E280000BF064B1B6803F48073002BF9D000BF8A
:100E380000BFBD465DF8047B704700BF2038014005
:100E480080B586B000AFF860B96011461A460B4607
:100E5800FB711346BB71F86801F0D6FB03467B753E
:100E68000023FB750023BB75F86801F0FDFAF868EC
:100E780001F0C4FA7B7D012B02D07B7D022B02D1CD
:100E88000423BB750AE07B7D032B02D10223BB75CB
:100E980004E07B7D042B01D10123BB75BB7D012BB5
:100EA80017D9FB791946F86801F0EDF9BB791946AD
:100EB800F86801F0FEF997F820301946F86801F053
:100EC8000CFAFB681B689A6BFB681B6822F08002AF
:100ED8009A63FB681B688D4A934213D0FB681B68B2
:100EE8008B4A93420ED0FB681B688A4A934209D00A
:100EF800FB681B68884A934204D0FB681B68874AD2
:100F080093421FD1864BDA78854B5B789A420CD195
:100F1800834BDB781A46834B02FB03F31A46BB7DEF
:100F2800B968F86800F092F92BE07D4BDB781A4637
:100F38007D4B02FB03F31A46BB7DB968F86800F0E5
:100F480085F91EE0764B9A78754B5B789A420CD1FE
:100F5800734B9B781A46734B02FB03F31A46BB7D0F
:100F6800B968F86800F072F90BE06D4B9B781A4687
:100F78006D4B02FB03F31A46BB7DB968F86800F0B5
:100F880065F97B7D042B02D17B7D052B05D097F875
:100F980028301946F86801F0B6F997F82430194650
:100FA800F86801F0CEF9F86801F03AFA9EE0FB7DA6
:100FB800FA6813441B79042B2FD1FB7D1946F86876
:100FC80000F08AFEFB7D1A46B968F86800F06CFFED
:100FD8007B7D012B10D1FA7D13465B0013449B00E7
:100FE8001A46BB6813441978FB7D0133DBB21A46F5
:100FF800F86800F0CBFB76E0FA7D13465B001344FB
:101008009B001A46BB6813441978FB7D0133DBB299
:101018001A46F86800F0EDFD65E0FB7DFA681344B8
:101028001B79062B29D1FB7D002B26D1FB681B6879
:101038009A69FB681B6842F001029A61FB681B68A9
:101048009A69FB681B6822F00C029A61FB681B68AE
:101058009A69FB681B6822F0F0029A61FB7D1A46C8
:10106800B968F86801F0D2F8FB681B681A6AFB686F
:101078001B6842F001021A6235E0FB7DFA681344EE
:101088001B79012B05D0FB7DFA6813441B79022BD1
:1010980029D1FB7D1A46B968F86800F005FF7B7D09
:1010A800012B10D1FA7D13465B0013449B001A46AE
:1010B800BB6813441978FB7D0133DBB21A46F86824
:1010C80000F064FB0FE0FA7D13465B0013449B00BD
:1010D8001A46BB6813441978FB7D0133DBB21A4604
:1010E800F86800F086FDFB7D0133FB75FA7DBB7D5A
:1010F8009A42FFF45CAFF86801F05CF9F86801F017
:101108006BF900BF1837BD4680BD00BF0000014025
:1011180000040140004001400044014000480140F3
:101128001C00002040420F0080841E0080B400AFE5
:10113800054B1B69044A23F00103136100BFBD4638
:101148005DF8047B704700BF0044014080B400AFE5
:10115800054B1B69044A23F00103136100BFBD4618
:101168005DF8047B704700BF0048014080B400AFC1
:10117800054B1B69044A23F04103136100BFBD46B8
:101188005DF8047B704700BF001C004080B400AFCE
:101198004FF08042084B1B68526A1A604FF0804338
:1011A8001B694FF0804223F04103136100BFBD4625
:1011B8005DF8047B704700BF2400002080B400AFB6
:1011C800074A084B1B68526A1A60054B1B69044A98
:1011D80023F04103136100BFBD465DF8047B7047EF
:1011E800000400402800002080B400AF074A084BE4
:1011F8001B68526A1A60054B1B69044A23F04103B5
:10120800136100BFBD465DF8047B704700080040CD
:101218002C00002080B500AF094A0A4B1B68526AAF
:101228001A60074B1B69064A23F041031361FFF755
:10123800D1F80A21044801F066FC00BF80BD00BF58
:10124800000C0040300000206400002080B48DB005
:1012580000AFF860B9607A60FB70002387F82F3020
:101268000023BB620023BB610023FB84002387F8B3
:101278002530642387F8243001233B62FB68DB6850
:101288007B61002387F8253032E097F82530FA682B
:1012980013441B79042B0BD097F8252013465B00C9
:1012A80013449B001A46BB681344884A5A601AE0E4
:1012B80097F8252013465B0013449B001A46BB6829
:1012C8001344D3ED017AF5EE407AF1EE10FA0AD123
:1012D80097F8252013465B0013449B001A46BB6809
:1012E80013447B4A5A6097F82530013387F8253034
:1012F80097F82520FB789A42C7D34EE101233B6239
:101308007B6807EE903AF8EE676A97ED057AC6EEC5
:10131800877AC7ED077A97F82430012B03D1012388
:1013280087F82F3039E097F8243007EE903AB8EE76
:10133800E77AD7ED077A67EE277AFCEEE77AF8EED8
:10134800677AC7ED077A28E03B6A01333B627B681E
:1013580007EE903AF8EE676A3B6A07EE903AB8EE05
:10136800677AD7ED057A27EE277AC6EE877AC7ED32
:10137800077A97F82430012B0FD997F8243007EE15
:10138800903AB8EEE77AD7ED077A67EE277AFCEE5F
:10139800E77AF8EE677AC7ED077A97F824201346BC
:1013A8001B049B1A07EE903AF8EEE77A97ED077A56
:1013B800B4EEE77AF1EE10FAC6DC97F82430012B88
:1013C80040F0CF80D7ED077AFCEEE77A17EE903A37
:1013D800BB62C6E0002387F82530012387F82F3049
:1013E800D7ED077AFCEEE77A17EE903ABB6282E017
:1013F800FB78002B22D197F824309AB297F8243042
:10140800B96AB1FBF3F39BB212FB03F3FB84BB6A2B
:101418009AB2FB8CD31AFB84FB8C002B03D00023DD
:1014280087F82F3062E097F82F3003F00103002B84
:1014380014BF0123002387F82F3057E097F8253091
:10144800FA6813441B79002B50D097F825201346CF
:101458005B0013449B001A46BB68134493ED017A62
:10146800BB6A07EE903AF8EE677A67EE277AC7ED1F
:10147800077AD7ED077AFCEEE77A17EE903ABB6168
:10148800BB699AB297F8243099B297F82430B869B2
:10149800B0FBF3F30F48A0FB03035B099BB211FBFE
:1014A80003F39BB2194689000B4419468800194674
:1014B80003460B449B009BB2D31AFB84FB8C002B86
:1014C8000AD0002387F82F3010E000BF0000C84280
:1014D800000020411F85EB5197F82F3003F00103DE
:1014E800002B14BF0123002387F82F3097F82530ED
:1014F800013387F8253097F82520FB789A42FFF4C6
:1015080077AFFB78002B3FF473AF97F82F3083F059
:101518000103DBB2002B24D03B6A01333B627B68BA
:1015280007EE903AF8EE676A3B6A07EE903AB8EE33
:10153800677AD7ED057A27EE277AC6EE877AC7ED60
:10154800077A97F8243007EE903AB8EEE77AD7EDA5
:10155800077A67EE277AFCEEE77AF8EE677AC7ED46
:10156800077A97F82F3083F00103DBB2002B05D000
:101578003B6A4FF6FE7293427FF62CAF97F82F30F6
:1015880083F00103DBB2002B07D097F824307D4AA3
:10159800A2FB0323DB0887F8243097F82F3083F069
:1015A8000103DBB2002B7FF4A9AEFB8C002B40F0CB
:1015B800DD8097F82F30002B00F0D880FB681B687F
:1015C8003A6A013A9A623B6A9AB2FB681A8197F8BA
:1015D8002430BA6AB2FBF3F2FB681B68013ADA629C
:1015E80097F82430BA6AB2FBF3F39AB2FB685A81CF
:1015F800FB78002B00F0B680FB681B79002B27D006
:10160800BB68D3ED017AF5EE407AF1EE10FA1FD0FF
:10161800BB6893ED017ABB6A07EE903AF8EE677AF9
:1016280067EE277AC7ED077AD7ED077AFCEEE77AF7
:1016380017EE903ABB61BB69534AA2FB03235A09D0
:1016480097F82430B2FBF3F2FB681B68013A5A633F
:10165800FB685B79002B29D0BB680C33D3ED017A8A
:10166800F5EE407AF1EE10FA20D0BB680C3393ED1A
:10167800017ABB6A07EE903AF8EE677A67EE277A46
:10168800C7ED077AD7ED077AFCEEE77A17EE903ABE
:10169800BB61BB693C4AA2FB03235A0997F8243073
:1016A800B2FBF3F2FB681B68013A9A63FB689B790B
:1016B800002B29D0BB681833D3ED017AF5EE407AB8
:1016C800F1EE10FA20D0BB68183393ED017ABB6AAB
:1016D80007EE903AF8EE677A67EE277AC7ED077A51
:1016E800D7ED077AFCEEE77A17EE903ABB61BB6953
:1016F800254AA2FB03235A0997F82430B2FBF3F2D8
:10170800FB681B68013ADA63FB68DB79002B29D098
:10171800BB682433D3ED017AF5EE407AF1EE10FA86
:1017280020D0BB68243393ED017ABB6A07EE903A68
:10173800F8EE677A67EE277AC7ED077AD7ED077A6A
:10174800FCEEE77A17EE903ABB61BB690E4AA2FB42
:1017580003235A0997F82430B2FBF3F2FB681B689D
:10176800013A1A64012387F82F3002E0002387F832
:101778002F3097F82F3018463437BD465DF8047B74
:10178800704700BFCDCCCCCC1F85EB5180B483B063
:1017980000AF78600B46FB701346BB70FB78002BDC
:1017A80058D17B681B685A6C7B681B6842F40042FE
:1017B8005A647B681B685A6C7B681B6822F4006259
:1017C8005A64BB78012B10D17B681B681A6A7B6846
:1017D8001B6842F001021A627B681B681A6A7B6800
:1017E8001B6822F004021A62FDE1BB78022B10D1BB
:1017F8007B681B681A6A7B681B6842F010021A62D1
:101808007B681B681A6A7B681B6822F040021A62B0
:10181800E9E1BB78032B10D17B681B681A6A7B68E7
:101828001B6842F480721A627B681B681A6A7B68BC
:101838001B6822F480621A62D5E1BB78042B40F061
:10184800D2817B681B681A6A7B681B6842F48052E5
:101858001A62C8E1FB78012B58D17B681B685A6C67
:101868007B681B6842F400425A647B681B685A6CA8
:101878007B681B6822F400625A64BB78012B10D184
:101888007B681B681A6A7B681B6822F001021A626F
:101898007B681B681A6A7B681B6842F004021A623C
:1018A800A1E1BB78022B10D17B681B681A6A7B68A0
:1018B8001B6822F010021A627B681B681A6A7B6830
:1018C8001B6842F040021A628DE1BB78032B10D1ED
:1018D8007B681B681A6A7B681B6822F480721A622C
:1018E8007B681B681A6A7B681B6842F480621A620C
:1018F80079E1BB78042B40F076817B681B681A6A13
:101908007B681B6822F480521A626CE1FB78022B18
:1019180058D17B681B685A6C7B681B6842F400428C
:101928005A647B681B685A6C7B681B6822F40062E7
:101938005A64BB78012B10D17B681B681A6A7B68D4
:101948001B6842F001021A627B681B681A6A7B688E
:101958001B6842F004021A6245E1BB78022B10D1E1
:101968007B681B681A6A7B681B6842F010021A625F
:101978007B681B681A6A7B681B6842F040021A621F
:1019880031E1BB78032B10D17B681B681A6A7B682E
:101998001B6842F480721A627B681B681A6A7B684B
:1019A8001B6842F480621A621DE1BB78042B40F088
:1019B8001A817B681B681A6A7B681B6842F480522C
:1019C8001A6210E1FB78032B58D17B681B685A6CAC
:1019D8007B681B6842F400425A647B681B685A6C37
:1019E8007B681B6822F400625A64BB78012B10D113
:1019F8007B681B681A6A7B681B6822F001021A62FE
:101A08007B681B681A6A7B681B6842F004021A62CA
:101A1800E9E0BB78022B10D17B681B681A6A7B68E7
:101A28001B6822F010021A627B681B681A6A7B68BE
:101A38001B6842F040021A62D5E0BB78032B10D134
:101A48007B681B681A6A7B681B6822F480721A62BA
:101A58007B681B681A6A7B681B6842F480621A629A
:101A6800C1E0BB78042B40F0BE807B681B681A6A13
:101A78007B681B6822F480521A62B4E0FB78042B5E
:101A880057D17B681B685A6C7B681B6842F400421C
:101A98005A647B681B685A6C7B681B6842F4006256
:101AA8005A64BB78012B10D17B681B681A6A7B6863
:101AB8001B6842F001021A627B681B681A6A7B681D
:101AC8001B6822F004021A628DE0BB78022B10D149
:101AD8007B681B681A6A7B681B6842F010021A62EE
:101AE8007B681B681A6A7B681B6822F040021A62CE
:101AF80079E0BB78032B10D17B681B681A6A7B6876
:101B08001B6842F480721A627B681B681A6A7B68D9
:101B18001B6822F480621A6265E0BB78042B62D1EC
:101B28007B681B681A6A7B681B6842F480521A62D9
:101B380059E0FB78052B56D17B681B685A6C7B688B
:101B48001B6822F400425A647B681B685A6C7B68E5
:101B58001B6842F480625A64BB78012B10D17B6801
:101B68001B681A6A7B681B6842F001021A627B686C
:101B78001B681A6A7B681B6842F004021A6232E02A
:101B8800BB78022B10D17B681B681A6A7B681B68BC
:101B980042F010021A627B681B681A6A7B681B682D
:101BA80042F040021A621EE0BB78032B10D17B681A
:101BB8001B681A6A7B681B6842F480721A627B6829
:101BC8001B681A6A7B681B6842F480621A620AE022
:101BD800BB78042B07D17B681B681A6A7B681B6873
:101BE80042F480521A6200BF0C37BD465DF8047B90
:101BF800704780B483B000AF78600B46FB70134623
:101C0800BB70FB78012B2FD1BB78012B08D17B68E7
:101C18001B681A6A7B681B6842F001021A6255E069
:101C2800BB78022B08D17B681B681A6A7B681B6823
:101C380042F010021A6249E0BB78032B08D17B6896
:101C48001B681A6A7B681B6842F480721A623DE05E
:101C5800BB78042B3AD17B681B681A6A7B681B68BF
:101C680042F480521A6231E0FB78002B2ED1BB7807
:101C7800012B08D17B681B681A6A7B681B6822F0F5
:101C880001021A6222E0BB78022B08D17B681B682C
:101C98001A6A7B681B6822F010021A6216E0BB7889
:101CA800032B08D17B681B681A6A7B681B6822F4BF
:101CB80080721A620AE0BB78042B07D17B681B6824
:101CC8001A6A7B681B6822F480521A6200BF0C37BC
:101CD800BD465DF8047B704780B483B000AF786080
:101CE8000B46FB70FB787A6813441B79042B68D188
:101CF800FB78002B16D17B681A687B681B68926991
:101D08009A617B681B689A697B681B6842F00802C5
:101D18009A617B681B689A697B681B6842F060025D
:101D28009A61BBE0FB78012B16D17B681A687B6847
:101D38001B6892699A617B681B689A697B681B6853
:101D480042F400629A617B681B689A697B681B6829
:101D580042F4C0429A61A1E0FB78022B16D17B685D
:101D68001A687B681B68D269DA617B681B68DA6964
:101D78007B681B6842F00802DA617B681B68DA69D5
:101D88007B681B6842F06002DA6187E0FB78032B0E
:101D980040F084807B681A687B681B68D269DA61C6
:101DA8007B681B68DA697B681B6842F40062DA6149
:101DB8007B681B68DA697B681B6842F4C042DA6199
:101DC8006CE0FB787A6813441B79052B66D1FB78A5
:101DD800002B16D17B681A687B681B6892699A6128
:101DE8007B681B689A697B681B6842F008029A61E5
:101DF8007B681B689A697B681B6842F070029A616D
:101E08004CE0FB78012B16D17B681A687B681B684D
:101E180092699A617B681B689A697B681B6842F4BF
:101E280000629A617B681B689A697B681B6842F448
:101E3800E0429A6132E0FB78022B16D17B681A687F
:101E48007B681B68D269DA617B681B68DA697B6822
:101E58001B6842F00802DA617B681B68DA697B68F4
:101E68001B6842F07002DA6118E0FB78032B15D189
:101E78007B681A687B681B68D269DA617B681B68B3
:101E8800DA697B681B6842F40062DA617B681B6868
:101E9800DA697B681B6842F4E042DA6100BF0C37FC
:101EA800BD465DF8047B704780B485B000AFF8602C
:101EB800B9601346FB71FA7913465B0013449B0023
:101EC8001A46BB6813445B78002B30D1FB79002B92
:101ED80008D1FB681B681A6AFB681B6842F002029B
:101EE8001A628DE1FB79012B08D1FB681B681A6A1D
:101EF800FB681B6842F020021A6281E1FB79022B21
:101F080008D1FB681B681A6AFB681B6842F40072F8
:101F18001A6275E1FB79032B40F07281FB681B683C
:101F28001A6AFB681B6842F400521A6268E1FA797F
:101F380013465B0013449B001A46BB6813445B7846
:101F4800012B30D1FB79002B08D1FB681B681A6A7A
:101F5800FB681B6842F008021A6251E1FB79012B09
:101F680008D1FB681B681A6AFB681B6842F080028C
:101F78001A6245E1FB79022B08D1FB681B681A6AD3
:101F8800FB681B6842F400621A6239E1FB79032B93
:101F980040F03681FB681B681A6AFB681B6842F4CC
:101FA80000421A622CE1FA7913465B0013449B0045
:101FB8001A46BB6813445B78022B50D1FB79002B7F
:101FC80010D1FB681B681A6AFB681B6842F00202A2
:101FD8001A62FB681B681A6AFB681B6842F00802F1
:101FE8001A620DE1FB79012B10D1FB681B681A6A94
:101FF800FB681B6842F020021A62FB681B681A6AB9
:10200800FB681B6842F080021A62F9E0FB79022B38
:1020180010D1FB681B681A6AFB681B6842F40072DF
:102028001A62FB681B681A6AFB681B6842F4006244
:102038001A62E5E0FB79032B40F0E280FB681B683D
:102048001A6AFB681B6842F400521A62FB681B6834
:102058001A6AFB681B6842F400421A62D0E0FA79F7
:1020680013465B0013449B001A46BB6813445B7815
:10207800032B30D1FB79002B08D1FB681B681A6A47
:10208800FB681B6822F002021A62B9E0FB79012B97
:1020980008D1FB681B681A6AFB681B6822F02002DB
:1020A8001A62ADE0FB79022B08D1FB681B681A6A3B
:1020B800FB681B6822F400721A62A1E0FB79032B0B
:1020C80040F09E80FB681B681A6AFB681B6822F454
:1020D80000521A6294E0FA7913465B0013449B009D
:1020E8001A46BB6813445B78042B2FD1FB79002B6D
:1020F80008D1FB681B681A6AFB681B6822F0080293
:102108001A627DE0FB79012B08D1FB681B681A6A0B
:10211800FB681B6822F080021A6271E0FB79022BCF
:1021280008D1FB681B681A6AFB681B6822F4006206
:102138001A6265E0FB79032B62D1FB681B681A6A97
:10214800FB681B6822F400421A6259E0FA791346C8
:102158005B0013449B001A46BB6813445B78052B4D
:102168004ED1FB79002B10D1FB681B681A6AFB68FB
:102178001B6822F002021A62FB681B681A6AFB6875
:102188001B6822F008021A623AE0FB79012B10D191
:10219800FB681B681A6AFB681B6822F020021A6237
:1021A800FB681B681A6AFB681B6822F080021A62C7
:1021B80026E0FB79022B10D1FB681B681A6AFB68C2
:1021C8001B6822F400721A62FB681B681A6AFB68B3
:1021D8001B6822F400621A6212E0FB79032B0FD10C
:1021E800FB681B681A6AFB681B6822F400521A62B3
:1021F800FB681B681A6AFB681B6822F400421A62B3
:1022080000BF1437BD465DF8047B704780B485B0C5
:1022180000AFF860B9601346FB71FA7913465B00AA
:1022280013449B001A46BB6813445B78012B08D102
:10223800FB681B681A6AFB681B6842F002021A6294
:102248001BE0FA7913465B0013449B001A46BB68EF
:1022580013445B78012B08D1FB681B681A6AFB687A
:102268001B6842F006021A6207E0FB681B681A6ADC
:10227800FB681B6822F006021A6200BF1437BD46CD
:102288005DF8047B704780B483B000AF78600B467C
:10229800FB707B681B685A68FB781B0119467B68D2
:1022A8001B680A435A6000BF0C37BD465DF8047BC3
:1022B800704780B483B000AF78600B46FB707B68D2
:1022C8001B689968FA787B681B680A439A6000BFA4
:1022D8000C37BD465DF8047B704780B483B000AF0F
:1022E80078600B46FB707B681B689A68FB781B015B
:1022F80019467B681B680A439A6000BF0C37BD46C5
:102308005DF8047B704780B483B000AF78600B46FB
:10231800FB70FB78002B08D07B681B681A687B6809
:102328001B6842F010021A6005E07B681A687B6837
:102338001B6812681A6000BF0C37BD465DF8047B45
:10234800704780B483B000AF78600B46FB70FB78B1
:10235800002B06D17B681A687B681B6812681A60B4
:1023680022E0FB78012B08D17B681B681A687B6820
:102378001B6842F020021A6016E0FB78022B08D195
:102388007B681B681A687B681B6842F040021A6009
:102398000AE0FB78032B07D17B681B681A687B6807
:1023A8001B6842F060021A6000BF0C37BD465DF83A
:1023B800047B704780B483B000AF78607B681B688B
:1023C8005A697B681B6842F001025A6100BF0C37EA
:1023D800BD465DF8047B704780B483B000AF786079
:1023E8007B681B681A687B681B6842F001021A60E8
:1023F80000BF0C37BD465DF8047B704780B483B0DE
:1024080000AF78607B681B681A687B681B6822F0DD
:1024180001021A6000BF0C37BD465DF8047B7047A7
:1024280080B483B000AF78607B681B681A687B68EB
:102438001B6842F080021A6000BF0C37BD465DF889
:10244800047B704780B483B000AF78600B467B8014
:102458007A887B681B68D2B2DA6000BF0C37BD4649
:102468005DF8047B7047000080B483B000AF7860EB
:102478007B681B68554A934206D1554B1B68544AE2
:1024880043F0010313609AE07B681B68B3F1804F47
:1024980006D1504B1B684F4A43F0010313608EE08E
:1024A8007B681B684C4A934206D14A4B1B68494AD1
:1024B80043F00203136082E07B681B68474A93423B
:1024C80006D1444B1B68434A43F00403136076E08B
:1024D8007B681B68424A934206D13E4B1B683D4AC3
:1024E80043F0080313606AE07B681B683D4A934227
:1024F80006D1384B1B68374A43F0100313605EE07F
:102508007B681B68384A934206D1324B1B68314AB4
:1025180043F02003136052E07B681B68334A934200
:1025280006D12B4B1B682A4A43F00203136046E08E
:102538007B681B682E4A934206D1254B1B68244AA8
:1025480043F4803313603AE07B681B68294A93425E
:1025580006D11F4B1B681E4A43F4003313602EE05C
:102568007B681B68244A934206D1194B1B68184A9A
:1025780043F48023136022E07B681B681F4A934260
:1025880006D1144B1B68134A43F04003136016E04E
:102598007B681B681A4A934206D10E4B1B680D4A8A
:1025A80043F0800313600AE07B681B68154A934276
:1025B80005D1084B1B68074A43F48073136000BFBA
:1025C8000C37BD465DF8047B704700BF0000014032
:1025D80044380240403802400004004000080040EF
:1025E800000C0040001000400014004000040140AE
:1025F80000400140004401400048014000180040EC
:10260800001C00400020004080B485B000AF786016
:102618000023FB737B681B682C4A934204D07B68B9
:102628001B682B4A934202D10123FB7346E07B6867
:102638001B68B3F1804F0ED07B681B68254A934214
:1026480009D07B681B68244A934204D07B681B68C6
:10265800224A934202D10223FB732FE07B681B6856
:102668001F4A934204D07B681B681E4A934202D1DA
:102678000323FB7322E07B681B681B4A93420ED03E
:102688007B681B68194A934209D07B681B68184A03
:10269800934204D07B681B68164A934202D10423F4
:1026A800FB730BE07B681B68134A934204D07B687A
:1026B8001B68124A934201D10523FB73FB7B184622
:1026C8001437BD465DF8047B704700BF0000014029
:1026D800000401400004004000080040000C0040D5
:1026E80000400140001800400044014000480140FB
:1026F800001C004000200040001000400014004072
:1027080080B584B002AF78607B68444A934216D1A2
:10271800434B1B68424A43F00103136007230093AD
:102728000323002202213F48FDF76CFD0723009395
:102738000323002203213B48FDF764FD6AE07B6820
:10274800394A934216D1364B1B68354A43F0010388
:102758001360082300930323002200213148FDF76A
:1027680051FD082300930323002201212D48FDF782
:1027780049FD4FE07B682D4A934216D1284B1B68D0
:10278800274A43F002031360072300930323002220
:102798000A212748FDF736FD07230093032300226B
:1027A8000B212348FDF72EFD34E07B68214A934234
:1027B80016D11B4B1B681A4A43F0440313600823C5
:1027C8000093032300220E211B48FDF71BFD08235D
:1027D80000930323002207211848FDF713FD19E091
:1027E8007B68144A934215D10D4B1B680C4A43F081
:1027F80001031360072300930323002209210948DA
:10280800FDF700FD07230093032300220A21054852
:10281800FDF7F8FC00BF0837BD4680BD4400002026
:1028280030380240000002405400002064000020BC
:102838000004024074000020001802400008024012
:1028480080B485B000AF786039600023FB737B6883
:10285800DB88012B25D13B68DB00264AB2FBF3F36A
:10286800BB81BB897B813B68DB00234AB2FBF3F366
:10287800BB81BB89DAB27B89DBB219464901C91A27
:102888008900CB1A5B00DBB21344FB73FB7B9BB262
:1028980003F007039AB2194B1A80184A7B895380B0
:1028A80021E03B681B01134AB2FBF3F3BB81BB89F0
:1028B8007B813B681B01104AB2FBF3F3BB81BB89E8
:1028C800DAB27B89DBB219464901C91A8900CB1AE9
:1028D8005B00DBB21344FB73FB7B9AB2074B1A8095
:1028E800064A7B895380054B18461437BD465DF868
:1028F800047B70470024F4000068890984000020E4
:1029080080B483B000AF78607B68214A934206D1D7
:10291800204B1B681F4A43F4003313602AE07B688E
:102928001D4A934206D11B4B1B681A4A43F40023E5
:1029380013601FE07B68194A934206D1154B1B6848
:10294800144A43F48023136014E07B68144A9342CA
:1029580006D1144B1B68134A43F02003136009E0A7
:102968007B68114A934205D10E4B1B680D4A43F010
:10297800100313607B681B68DA687B681B6842F485
:102988000052DA6000BF0C37BD465DF8047B704723
:102998004400002040380240540000206400002019
:1029A80074000020443802403400002080B483B012
:1029B80000AF78600B46FB701346BB70FB78002BAA
:1029C8000BD07B681B68DA687B681B6842F00402DE
:1029D800DA607B6801225A730AE07B681B68DA6850
:1029E8007B681B6822F00402DA607B6800225A7355
:1029F800BB78002B0BD07B681B68DA687B681B6888
:102A080042F00802DA607B6801221A730AE07B68E8
:102A18001B68DA687B681B6822F00802DA607B684A
:102A280000221A7300BF0C37BD465DF8047B70475F
:102A380080B483B000AF78600B46FB70FB78002B46
:102A48000FD17B681B68DA687B681B6822F48052A8
:102A5800DA607B681B8923F480539AB27B681A81F9
:102A68000EE07B681B68DA687B681B6842F480525A
:102A7800DA607B681B8943F480539AB27B681A81B9
:102A880000BF0C37BD465DF8047B704780B483B047
:102A980000AF78600B46FB70FB78012B0BD17B688D
:102AA8001B68DA687B681B6842F40042DA607B685E
:102AB8000122DA800AE07B681B68DA687B681B6899
:102AC80022F40042DA607B680022DA8000BF0C370B
:102AD800BD465DF8047B704780B485B000AF786070
:102AE80000BF7B681B681B6803F02003002BF8D02D
:102AF8007B681B685B68FB73FB7B18461437BD4615
:102B08005DF8047B704780B483B000AF78600B46F3
:102B1800FB7000BF7B681B681B6803F08003002BF9
:102B2800F8D07B681B68FA785A6000BF0C37BD463E
:102B38005DF8047B704780B483B000AF78600B46C3
:102B4800FB70FB78012B13D17B681B68DA687B6804
:102B58001B6842F48062DA607B681B68DA687B680D
:102B68001B6842F00102DA607B6801225A8121E089
:102B7800FB78022B13D17B681B68DA687B681B68BB
:102B880042F48062DA607B681B68DA687B681B68DD
:102B980022F00102DA607B6802225A810AE07B682F
:102BA8001B68DA687B681B6822F48062DA607B68DD
:102BB80000225A8100BF0C37BD465DF8047B704780
:102BC80080B584B000AF7860084611461A460346BF
:102BD800FB700B46BB7013467B70386AFFF790FE9C
:102BE8003A7F3B7E1946386AFFF7E0FEBB78194604
:102BF800386AFFF71DFFFB781946386AFFF746FF6A
:102C08007B781946386AFFF796FF7968386AFFF7C4
:102C180017FEF8603B6A1B689A68FB681B881946B0
:102C28003B6A1B680A439A603B6A1B689A68FB68A0
:102C380002331B881B0119463B6A1B680A439A60CA
:102C480000BF1037BD4680BD80B483B000AF786048
:102C580039607B683A681A607B680022DA807B6892
:102C680000229A807B6800221A817B6800225A73AE
:102C78007B6800221A7300BF0C37BD465DF8047BE1
:102C8800704780B483B000AF78607B681B68DA68EF
:102C98007B681B6842F02002DA6000BF0C37BD4633
:102CA8005DF8047B704780B483B000AF78607B68C0
:102CB8001B68DA687B681B6842F04002DA6000BF74
:102CC8000C37BD465DF8047B704780B483B000AF15
:102CD80078607B681B68DA687B681B6842F0800252
:102CE800DA6000BF0C37BD465DF8047B7047000012
:102CF80080B582B000AF7860084611461A46034690
:102D0800FB700B46BB7013467B70FB78002B02D020
:102D18007868FFF7B6FFBB78002B02D07868FFF71A
:102D2800C2FF7B78002B02D07868FFF7CEFF7B6864
:102D3800194A934205D13B7C19462620FDF76CFBC6
:102D480026E07B68154A934205D13B7C194634201E
:102D5800FDF762FB1CE07B68114A934205D13B7C7E
:102D680019462720FDF758FB12E07B680D4A93426D
:102D780005D13B7C19464720FDF74EFB08E07B68F0
:102D8800094A934204D13B7C19462520FDF744FBB0
:102D980000BF0837BD4680BD440000205400002015
:102DA80064000020740000203400002080B485B046
:102DB80000AF78607B681B681B68DBB203F00F0309
:102DC800FB73FB7B18461437BD465DF8047B7047E0
:102DD80080B485B000AF78607B681B681B68DBB285
:102DE80023F00F03FB73FB7B18461437BD465DF8D1
:102DF800047B704780B485B000AF78600B46FB70E9
:102E0800FB78BB73BB7B002B02D10123FB7337E03C
:102E18000023FB73BB7B03F00103002B0DD000BF25
:102E28007B681B681B6803F02003002BF8D07B68C5
:102E38001B681B687B681B685B68BB7B03F001032E
:102E4800002B05D07B681B681B687B681B685B6868
:102E5800BB7B03F00403002B05D07B681B681B6851
:102E68007B681B685B68BB7B03F00803002B05D0FD
:102E78007B681B681B687B681B685B680123FB73A6
:102E8800FB7B18461437BD465DF8047B704700008D
:102E980080B485B000AF0346FB71234B1B68224A00
:102EA80043F4E0631360FB79002B05D0FB791E2BFC
:102EB80002D80023FB732BE0FB791E2B05D9FB7985
:102EC8003C2B02D80123FB7322E0FB793C2B05D96C
:102ED800FB795A2B02D80223FB7319E0FB795A2B92
:102EE80005D9FB79782B02D80323FB7310E0FB7913
:102EF800782B05D9FB79962B02D80423FB7307E0BE
:102F0800FB79962B04D9FB79B42B01D80523FB73E5
:102F1800054B1A68FB7B044913430B6000BF143749
:102F2800BD465DF8047B7047003C024080B500AFA9
:102F38002A48FFF74DFF03461A46294B1A7007E047
:102F48002648FFF733FF034619462448FFF752FF88
:102F58002248FFF72BFF034619462048FFF74AFF90
:102F6800034683F00103DBB2002BE9D11C4B1B782D
:102F780003F02003002B0FD01848FFF7ADFD0346E0
:102F88001A46184B1A70154B1B681A68134B1B68A6
:102F980022F020021A601FE0114B1B7803F0400357
:102FA800002B08D00D4B1B681A680C4B1B6822F0CD
:102FB80040021A6010E00A4B1B785BB2002B0BDA58
:102FC8007E210648FFF79FFD044B1B681A68034BD8
:102FD8001B6822F080021A6000BF80BD3400002008
:102FE800CD000020CC00002080B500AF2A48FFF7B4
:102FF800EFFE03461A46294B1A7007E02648FFF7EA
:10300800D5FE034619462448FFF7F4FE2248FFF789
:10301800CDFE034619462048FFF7ECFE034683F031
:103028000103DBB2002BE9D11C4B1B7803F0200312
:10303800002B0FD01848FFF74FFD03461A46184BD0
:103048001A70154B1B681A68134B1B6822F0200274
:103058001A601FE0114B1B7803F04003002B08D0C7
:103068000D4B1B681A680C4B1B6822F040021A6053
:1030780010E00A4B1B785BB2002B0BDA7E21064866
:10308800FFF741FD044B1B681A68034B1B6822F0CD
:1030980080021A6000BF80BD54000020CD000020CF
:1030A800CC00002080B500AF2848FFF791FE03460A
:1030B8001A46274B1A7007E02448FFF777FE0346A5
:1030C80019462248FFF796FE2048FFF76FFE034691
:1030D80019461E48FFF78EFE034683F00103DBB254
:1030E800002BE9D11A4B1B7803F02003002B0FD0DB
:1030F8001648FFF7F1FC03461A46164B1A70164B92
:103108001B681A68144B1B6822F020021A601BE027
:103118000F4B1B7803F04003002B08D00B4B1B68A8
:103128001A680A4B1B6822F040021A600CE0084B30
:103138001B785BB2002B07DA044B1B681A68034B39
:103148001B6822F080021A6000BF80BD4400002086
:10315800CD000020CC0000206400002080B500AF26
:103168002848FFF735FE03461A46274B1A7007E032
:103178002448FFF71BFE034619462248FFF73AFE8C
:103188002048FFF713FE034619461E48FFF732FE94
:10319800034683F00103DBB2002BE9D11A4B1B78FD
:1031A80003F02003002B0FD01648FFF795FC0346C9
:1031B8001A46164B1A70134B1B681A68114B1B687A
:1031C80022F020021A601BE00F4B1B7803F040032B
:1031D800002B08D00B4B1B681A680A4B1B6822F09F
:1031E80040021A600CE0084B1B785BB2002B07DA30
:1031F800044B1B681A68034B1B6822F080021A6094
:1032080000BF80BD64000020CD000020CC0000205D
:1032180080B500AF2848FFF7DBFD03461A46274B69
:103228001A7007E02448FFF7C1FD034619462248F3
:10323800FFF7E0FD2048FFF7B9FD034619461E4891
:10324800FFF7D8FD034683F00103DBB2002BE9D179
:103258001A4B1B7803F02003002B0FD01648FFF7FA
:103268003BFC03461A46164B1A70134B1B681A6828
:10327800114B1B6822F020021A601BE00F4B1B78D1
:1032880003F04003002B08D00B4B1B681A680A4B4D
:103298001B6822F040021A600CE0084B1B785BB2F6
:1032A800002B07DA044B1B681A68034B1B6822F0D3
:1032B80080021A6000BF80BD74000020CD0000208D
:1032C800CC00002080B584B004AF0F490F48FFF749
:1032D800BBFC0E48FFF714FA0C4B02930123019331
:1032E800012300930223012200214FF41650FFF717
:1032F80067FC002300930023002201210348FFF705
:10330800F7FC00BFBD4680BD0048004064000020B7
:1033180080B584B004AF1E4B10221A7000230193AD
:10332800002300930023012202211948FDF7EEF83B
:103338001849194800F058F8174B4FF07E52DA60D8
:10334800154B04221A719FED150A02220521144813
:1033580000F06AF8002302930023019301230093ED
:10336800002300220E490C48FDF76AFD094B1B6932
:10337800084A23F04103136103213220FDF74CF87A
:1033880001210548FFF75EF800BFBD4680BD00BFBC
:103398001C000020000C0040B80000200000C842BB
:1033A8008800002080B582B000AFFFF7B1FFFFF7BB
:1033B80089FFFCF7D9FF0948FFF78EFB03461A4639
:1033C800074B1A7000237B6002E07B6801337B6047
:1033D8007B68044A9342F8DDEDE700BF64000020F3
:1033E800CC00002040420F0080B483B000AF78606A
:1033F80039607B683A681A607B6800225A817B686A
:1034080000221A817B6800221A717B6800225A7197
:103418007B6800229A717B680022DA7100BF0C3742
:10342800BD465DF8047B704780B485B000AFF86096
:103438000B4687ED010AFB721346BB72FB68FA7AEA
:103448001A70FB68BA7A5A70FB687A685A6000BFCB
:103458001437BD465DF8047B704700000D4885466B
:10346800FCF7BEFE0C480D490D4A002302E0D45873
:10347800C4500433C4188C42F9D30A4A0A4C0023B6
:1034880001E013600432A242FBD300F011F8FFF709
:1034980089FFFEE700000220000000200000002055
:1034A8002035000800000020D0000020FEE70000C2
:1034B80070B50D4D0D4C641BA4100026A64209D111
:1034C8000B4D0C4C00F018F8641BA4100026A64203
:1034D80005D170BD55F8043B98470136EEE755F81D
:1034E800043B98470136F2E71835000818350008FC
:1034F800183500081C350008F8B500BFF8BC08BC32
:103508009E467047F8B500BFF8BC08BC9E46704799
:04351800CD010008D9
:04351C00A9010008F9
:040000050800346556
:00000001FF
